:020000040800F2
:1000000020C4002001390008290300082B03000840
:100010002F03000833030008370300080000000026
:100020000000000000000000000000003B0300088A
:100030003D030008000000003F03000841030008E2
:100040001B3900081B3900081B3900081B39000840
:100050001B3900081B3900081B3900081B39000830
:100060001B3900081B3900081B3900081B39000820
:100070001B3900081B3900081B3900081B39000810
:100080001B3900081B3900081B3900081B39000800
:100090001B3900081B3900081B3900081B390008F0
:1000A0001B3900081B3900081B3900081B390008E0
:1000B0001B390008971400081B3900081B39000879
:1000C0001B3900081B3900081B3900081B390008C0
:1000D0001B390008753800081B3900082919000869
:1000E000C51500081B3900081B3900081B3900081A
:1000F0001B3900081B3900081B3900081B39000890
:100100001B390008293500081B3900081B39000875
:100110001B3900081B390008111500082B150008B1
:100120001B3900081B3900081B3900081B3900085F
:1001300000F002F800F0B0F80AA090E8000C824449
:100140008344AAF10107DA4501D100F0A5F8AFF226
:10015000090EBAE80F0013F0010F18BFFB1A43F0A5
:100160000103184770590200905902000A444FF0E9
:10017000000C10F8013B13F0070408BF10F8014B06
:100180001D1108BF10F8015B641E05D010F8016B4B
:10019000641E01F8016BF9D113F0080F1EBF10F8AF
:1001A000014BAD1C0C1B09D16D1E58BF01F801CBD2
:1001B000FAD505E014F8016B01F8016B6D1EF9D555
:1001C0009142D6D37047000000230024002500266A
:1001D000103A28BF78C1FBD8520728BF30C148BFAA
:1001E0000B6070476E2909F0AE80702908F0D58544
:1001F000662919F00F87652919F00C87672919F00E
:1002000009876129AFF3008003681B0A28BF41F00A
:100210008001692908F04685642908F0438575291D
:1002200008F040856F2909F0A781782908F0A18599
:10023000E92909F04181E42909F03E81F52909F015
:100240003B81EF2909F0A481F82908F0A085036813
:10025000DB0928BF41F08001632909F0B0807329D0
:1002600009F0B580E32909F05884F32909F05D8489
:10027000002070471FB509F0ADFC040000200021EC
:1002800019F0B2FE401C60600020002119F096FEBB
:10029000E0601FBD10B510BD09F06FFC1146FFF7FF
:1002A000E9FF00F009F809F047FD03B4FFF7F2FF9A
:1002B00003BC03F081FA000003F00EFA4FF4A060D3
:1002C00003F054FC4FF4E13003F085FA00F02AF912
:1002D00000F0D4FA00F04CF912490868804700F0A9
:1002E00097FE472140F2E73001F0A8F840F2CF2115
:1002F00040F2E73001F0DFF8002003F038FB012086
:1003000003F035FB0121402004F0B3FA0CF0E0FFCC
:10031000042012F037FC0CF0DBFF07F086FE00BF74
:10032000FEE700001C000020704700BFFEE700BF92
:10033000FEE700BFFEE700BFFEE77047704770476B
:10034000704700000CB50020019000906C480068D8
:1003500040F480306A49086000BF6948006800F4D2
:10036000003000900198401C0190009818B9019845
:10037000B0F5A06FF1D16248006800F4003010B110
:100380000120009001E0002000900098012843D156
:100390005C48006840F010005A4908600846006850
:1003A00020F0030008600846006840F00200086082
:1003B00053484068524948600846406848600846CB
:1003C000406840F4806048600846406820F47C1033
:1003D00048600846406840F4E810486008460068F5
:1003E00040F08070086000BF4548006800F0007071
:1003F0000028F9D04248406820F003004049486096
:100400000846406840F00200486000BF3C48406831
:1004100000F00C000828F9D10CBD10B5FFF792FFD1
:1004200010BD10B53648006840F00100344908603E
:100430000846406834490840314948600846006829
:10044000324908402E4908600846006820F48020A0
:1004500008600846406820F4FE0048604FF41F0022
:100460008860FFF7DAFF4FF000602949086010BD8F
:1004700010B5002100200022214B5B6803F00C0125
:1004800021B1042906D0082928D107E0214B224CAC
:10049000236027E01F4B204C236023E0184B5B6850
:1004A00003F47010164B5B6803F48032022303EBF5
:1004B000904022B9194B4343174C23600DE0104B79
:1004C0005B6803F4003323B1144B4343124C2360A5
:1004D00003E0104B4343104C236003E00D4B0E4CE4
:1004E000236000BF00BF064B5B68C3F303130C4CD3
:1004F000E15C094B1B68CB40074C236010BD00003A
:1005000000100240002002400000FFF8FFFFF6FE4E
:1005100008ED00E000127A000000002000093D0014
:100520000400002008B50121482004F0AFF9202084
:10053000ADF8000010208DF8030003208DF80200B4
:100540006946094803F0E6FE2021074803F08FFFC3
:100550002020ADF800006946044803F0DBFE2021AE
:10056000024803F084FF08BD000C01400018014060
:1005700008B50121442004F089F91C20ADF80000E1
:1005800048208DF803006946354803F0C3FE01207A
:10059000ADF8000028208DF803006946314803F0CB
:1005A000B9FE08BD10B5044614B101202E490870EB
:1005B0002D480078002837D01021294803F03DFF4E
:1005C00078B10821264803F038FF50B104212448AF
:1005D00003F033FF28B10121224803F02EFF012848
:1005E00022D10A2003F0B5F800201F49087010211D
:1005F0001B4803F022FF08B9012010BD082118484C
:1006000003F01BFF08B90220F7E70421144803F0A8
:1006100014FF08B90320F0E70121124803F00DFF91
:1006200001281BD10420E8E710210D4803F005FF45
:10063000012813D108210A4803F0FFFE01280DD13B
:100640000421074803F0F9FE012807D101210548DC
:1006500003F0F3FE10B90120034908700020CCE735
:10066000001801400008014014000020FB490880E8
:100670007047FA49891C08807047F848801C008838
:100680007047F64A1080921C118070470146F3486B
:100690000180801C00887047F1484089EF4908803C
:1006A0007047EE49891C0880704710B503460C4618
:1006B000EB49887B2146FFF7E4FFE949087B1946AF
:1006C000FFF7DFFF10BD70B505460E46002431462A
:1006D0002846FFF7EAFF07E0E048007800F0010055
:1006E00000B105E0601C84B241F6FF708442F3DB88
:1006F00000BFDA48801C008870BD00B50346D848AA
:10070000008920F03F00D64908810846008903F09F
:100710003F010843D2490881084601890520FFF7B7
:10072000B0FF00BD00B5034619460320FFF7A9FF3F
:1007300000BD00B5CA4801890520FFF7A2FF00BD32
:1007400000B500210520FFF79CFF00BD00B5034662
:10075000C348008920F46060C149088108460089C7
:1007600003F0070140EA4120BD490881084601899C
:100770000520FFF786FF00BD00B50346B848008995
:1007800020F4E040B64908810846008903F00701DB
:1007900040EA0130B2490881084601890520FFF787
:1007A00070FF00BD00B5034633B1012B09D0022B09
:1007B0000CD0032B14D10EE001210720FFF761FFBD
:1007C00013E003210720FFF75CFF0EE00021072064
:1007D000FFF757FF09E002210720FFF752FF04E06F
:1007E00001210720FFF74DFF00BF00BF00BD30B55E
:1007F00004460D4629462046FFF757FFFFF74CFFFA
:10080000984800889549891C088030BD10B5944BE4
:10081000DB89924C2380A31C1980914B9B892380F8
:10082000A31C18808E4B5B892380A31C1A8010BDEB
:100830007047F0B504460E4615461F466119491E1D
:1008400088B2FFF76FFF31462046FFF72EFFF0BD5D
:1008500070B504460026824805884088454300213B
:100860000846FFF722FFFFF717FF00BF03E07B48B2
:10087000801C0480761CAE42F9D370BD10B59EB0CA
:1008800001214FF4B47004F001F80121080203F0D3
:10089000F0FF0120ADF8740010208DF877000320E0
:1008A0008DF876001DA9704803F034FD4CF23370CA
:1008B000ADF8740018208DF8770003208DF87600CD
:1008C0001DA96A4803F026FD4FF68070ADF874004C
:1008D00018208DF8770003208DF876001DA9644854
:1008E00003F018FD41F20100ADF8740018208DF8F6
:1008F000770003208DF876001DA95E4803F00AFDFD
:100900000020079008900320099000200A900B9087
:100910000C900D9000900190012002900020039017
:1009200004900590069006200E9000200F901090E5
:100930001020119000201290149013901590169092
:100940004FF480501790002018904FF48040199079
:1009500000201A9007A81B90CDF870D00EA803F0C5
:10096000BFF90121062003F023FB00204249086063
:10097000642002F0EEFE01204049C1F8800107E04A
:10098000FFF77BFE00F0010000B105E0601C84B2BF
:1009900041F6FF708442F3DB00BF012030498881BB
:1009A0000020C881022048814FF4487008804FF42D
:1009B000F07048800020FFF7F5FE0020FFF7C6FE2C
:1009C0000020FFF7D9FE40F21F30FFF7ABFE3F20BB
:1009D000FFF793FE4FF6FF70FFF73AFF1EB010BD12
:1009E0002DE9F04F05460E4617469846DDF824A03F
:1009F0004FF0000B781B401C1FFA80FB344614E0BC
:100A000021462846FFF751FEFFF746FE4FF000094A
:100A100007E01248801CA0F800A009F101001FFAAD
:100A200080F9D945F5DB601C84B24445E8DDBDE8BA
:100A3000F08F2DE9F84F07460D4690469946DDF8B0
:100A400028B0A8EB0700401C1FFA80FAA9EB0500AC
:100A5000401C80B20090002427E00000FE07006CDC
:100A6000C004002016000020000C014000140140CA
:100A70000018014000200140808121420080214275
:100A8000281981B23846FFF710FEFFF705FE002651
:100A900007E004FB0A603BF81000FE490880701C68
:100AA00086B25645F5DB601C84B200988442E7DBD1
:100AB000BDE8F88F2DE9FF4F84B081468A460020BB
:100AC000039002900698A0EB09050798A0EB0A0690
:100AD000CDF80490CDF800A0002D01DD012705E040
:100AE0000DB9002702E04FF0FF376D42002E02DD06
:100AF0004FF0010806E016B94FF0000802E04FF091
:100B0000FF387642B54201DD2C4600E034464FF016
:100B1000000B21E0009A91B2019A90B2FFF767FEB4
:100B20000398284403900298304402900398A0420E
:100B300005DD0398001B039001983844019002984A
:100B4000A04205DD0298001B0290009840440090EE
:100B50000BF101001FFA80FB601C8345DADD08B051
:100B6000BDE8F08FF0B504460D4616461F462B46ED
:100B7000324629462046FFF79DFF3B46224629463E
:100B80002046FFF797FF3B46324639462046FFF79F
:100B900091FF3B46324629463046FFF78BFFF0BDBA
:100BA0002DE9F04306460F469046002445460320B3
:100BB000A0EB48093CE07A1B91B2321990B2FFF7E2
:100BC00016FE3A1B91B2721990B2FFF710FE3A1955
:100BD00091B2721990B2FFF70AFE7A1991B23219E6
:100BE00090B2FFF704FE7A1991B2321B90B2FFF770
:100BF000FEFD3A1991B2721B90B2FFF7F8FD7A1B15
:100C000091B2321B90B2FFF7F2FD3A1B91B2721B08
:100C100090B2FFF7ECFD641CB9F1000F03DAA000FD
:100C2000801D814404E0601B80000A3081446D1EF9
:100C3000AC42C0DDBDE8F0832DE9F84F05460F4614
:100C400090461E4600979448B0F80090A8F1200006
:100C500000F0FF080A9800284ED1002449E00C2E2D
:100C600007D108EB48008D4901EB800010F804A083
:100C700004E08B4800EB081010F804A04FF0000BC4
:100C800031E00AF0800018B18348A0F8009003E03A
:100C9000844800888049088039462846FFF7A7FD28
:100CA0004FEA4A604FEA106A781C87B27E48008893
:100CB000A84204DC7848A0F80090BDE8F88F0098BE
:100CC000381AB0420BD1009F681C85B27648008864
:100CD000A84203DC7048A0F80090EEE706E00BF1B4
:100CE000010000F0FF0BBBF1080FCADB00BF601C66
:100CF000C4B2B442B3DB44E0002440E00C2E07D180
:100D000008EB4800654901EB800010F804A004E0FE
:100D1000634800EB081010F804A04FF0000B28E027
:100D20000AF0800018B139462846FFF760FD4FEA07
:100D30004A604FEA106A781C87B25B484088A84234
:100D400003DC5548A0F80090B7E70098381AB04285
:100D50000BD1009F681C85B253480088A84203DC71
:100D60004D48A0F80090A8E706E00BF1010000F064
:100D7000FF0BBBF1080FD3DB00BF601CC4B2B44251
:100D8000BCDB4548A0F8009000BF96E710B50246CE
:100D9000012000E050430B00A1F10104E1B2F9D1C0
:100DA00010BD2DE9FF4F81B0074691461E460E9DAE
:100DB0004FF0000A002439E0301B401EC1B20A2067
:100DC000FFF7E4FFB9FBF0F00A21B0FBF1F201FB01
:100DD0001208BAF1000F16D1701EA04213DDB8F14F
:100DE000000F0ED10020AB4605EBDB71491001FB73
:100DF0000471009088B22B4620220299FFF71CFF55
:100E000012E04FF0010A0020AB4605EBDB71491000
:100E100001FB0471009088B208F13001CAB22B4680
:100E20000299FFF709FF00BF601CC4B2B442C3DBE4
:100E300005B0BDE8F08F2DE9FF4F82B0064692461F
:100E40001F46DDE90F480020019000255BE0781B7C
:100E5000401EC1B20A20FFF799FFBAFBF0F00A2149
:100E6000B0FBF1F201FB12090198A8BB781EA84261
:100E700035DDB9F1000F30D108F08000E0B108F0A5
:100E80000100A34604EBDB71491001FB05610090F2
:100E900088B20BE00008006C1600002018A00108C2
:100EA0008CA4010818000020C00400202346302232
:100EB0000399FFF7C1FE0EE008F00100A34604EB22
:100EC000DB71491001FB0561009088B223462022A6
:100ED0000399FFF7B1FE14E001E00120019008F052
:100EE0000100A34604EBDB71491001FB0561009092
:100EF00088B209F13001CAB223460399FFF79CFE7C
:100F000000BF681CC5B2BD42A1DB06B0BDE8F08FD2
:100F10002DE9F84704460D4690469946DDE90967F4
:100F200004F0FF0A08EB04001FFA80F809EB050043
:100F30001FFA80F916E0444502DB5446A81985B231
:100F40004D4500DB14E0002000903A7833462946F6
:100F50002046FFF771FE304606EBD07104EB6101CD
:100F60008CB27F1C38787E2802DC38782028E2DAC0
:100F700000BFBDE8F8872DE9F04306460F469046CE
:100F8000002445460320A0EB48093CE07A1B91B2BF
:100F9000321990B2FFF72BFC3A1B91B2721990B242
:100FA000FFF725FC3A1991B2721990B2FFF71FFCB6
:100FB0007A1991B2321990B2FFF719FC7A1991B2ED
:100FC000321B90B2FFF713FC3A1991B2721B90B228
:100FD000FFF70DFC7A1B91B2321B90B2FFF707FCB2
:100FE0003A1B91B2721B90B2FFF701FC641CB9F17D
:100FF000000F03DAA000801D814404E0601B800024
:101000000A3081446D1EAC42C0DDBDE8F0830000B3
:101010006248406940F480706049486108468069D0
:1010200040F0200088610846806940F040008861F7
:101030000846806940F0800088610846806940F475
:10104000807088615648006800205549086008464D
:10105000006840F0BB300860081F006800F0FF2007
:10106000091F08600846006840F0BB1008604D4842
:10107000006800204B4908600846006840F0BB301B
:101080000860081F0068484908404649091F086071
:1010900008460068454908434249091F086044481A
:1010A000006880B242490860084600684149084328
:1010B0003F490860081F006800F07F40091F086072
:1010C000084600683C4908433949091F08603B4805
:1010D000406820F47060394948600846406840F430
:1010E000306048600846006800F07F4008600846AD
:1010F0000068314908433149086000204FF0204121
:10110000086148612E490860C806006940F48050B3
:10111000C90608610846006940F0100008610846E9
:10112000406940F44070486108464069486108469B
:10113000406948616FF07040C1F8140108460069C9
:1011400040F001000861704710B506E004784FF0E8
:10115000D0435C54491C401C521E002AF6D110BDDD
:1011600006E04FF0D0435B5C00F8013B491C521E87
:10117000002AF6D1704713B504460122214601A882
:10118000FFF7E2FF1CBD18B5044601222146684660
:10119000FFF7E6FF9DF8000018BD000000100240B8
:1011A000041401400418014000FFFF0FBB0000B011
:1011B000041C01400000BBBBBBBBBB0000200140C6
:1011C000140100A008B50121882003F05FFB022074
:1011D000ADF8000010208DF8030003208DF8020008
:1011E0006946904803F096F802218E4803F03FF9D3
:1011F0004FF40070ADF8000010208DF803000320BC
:101200008DF802006946884803F084F808BD10B5DF
:101210008548001D006820F0F0008349091D086022
:101220000846006840F03000086001207F490860EF
:101230007F49C1F8840102F068FA00207B49086008
:10124000012002F062FA00207949C1F8840110BD42
:1012500010B57548001D006820F0F0007249091DA6
:1012600008600846006840F03000086000207149BE
:1012700008607149C1F8A401012002F046FA01207A
:101280006C4908606C49C1F8A40102F03EFA10BD37
:1012900010B500246448001D006820F0F000624989
:1012A000091D08600846006840F0800008600120C1
:1012B0005E49086002F029FA01205D49C1F8840105
:1012C00002F023FA07E0601CC4B2FA2C03DDFFF73A
:1012D000BFFF012010BD5548803800680028F2D1BA
:1012E0005449086000BFF5E710B500205149086077
:1012F0004D48001D006820F0F0004B49091D0860B2
:101300000846006840F03000086000204A49C1F8F3
:10131000A401012002F0F9F901204649086002F019
:10132000F4F900204249C1F8840110BD10B5002035
:10133000404908603C48001D006820F0F0003A4930
:10134000091D08600846006840F030000860012070
:101350003949C1F8A40102F0D8F9012035490860E3
:1013600002F0D3F900203249C1F8840110BD70B5F4
:1013700004462D48001D006820F0F0002A49091D90
:1013800008600846006840F03000086000202949E5
:101390000860002512E0E009244908606006040E98
:1013A00001202349C1F8840102F0AFF9002021494E
:1013B0000860012002F0A9F9681CC5B2082DEADB1B
:1013C00070BD70B5054600241748001D006820F068
:1013D000F0001549091D08600846006840F08000CB
:1013E0000860002613E0002012490860012002F086
:1013F0008CF901200E49C1F884016006040E0B48E7
:101400008038006808B1601CC4B2701CC6B2082ED7
:10141000E9DB15B9FFF78AFF01E0FFF765FF20461A
:1014200070BD0000000C0140001C0140A48123425B
:101430000080214284812142008023427FB50446FE
:101440000D460121022003F02EFAADF804500020D1
:10145000ADF80600ADF80840ADF80A0001A95448FF
:1014600003F04CFB01221146514803F0BEFE1D2043
:101470008DF8000000208DF8010003208DF8020097
:1014800001208DF80300684602F075FB01214848F1
:1014900003F090FE7FBD10B50121454804F053F9DB
:1014A00020B144480068401C42490860012140487E
:1014B00004F05AF910BD7FB504460D4601211020F5
:1014C00003F0F1F9ADF804500020ADF80600ADF8D6
:1014D0000840ADF80A0001A9374803F00FFB0122CC
:1014E0004121354803F081FE36208DF800000120AF
:1014F0008DF8010003208DF8020001208DF8030013
:10150000684602F038FB01212B4803F053FE7FBDF3
:1015100010B50121284804F016F908B10CF0BEFD01
:101520000121254804F020F910BD10B50121234800
:1015300004F009F968B12248008840F400402049CD
:10154000088001211D4804F00FF900211B4803F019
:1015500031FE10BD7FB505460C460121202003F069
:10156000A2F9ADF80450ADF800400020ADF8060037
:10157000ADF802006946114803F0C0FA0122114695
:101580000E4803F032FE01210C4803F013FE372011
:101590008DF80C0000208DF80D0002208DF80E0053
:1015A00001208DF80F0003A802F0E5FA7FBD0000CE
:1015B0000004004090000020001000400014004093
:1015C0004000002010B5CD48006838B9CC4890F8EC
:1015D000210040F08000CA4981F821004FF480606A
:1015E00004F04FFB10BD2DE9F04104460E461746AE
:1015F0004FF00008FFF70BFEBA20FFF7B8FEFFF729
:1016000047FE2012FFF7B3FEFFF742FEE0B2FFF7FE
:10161000AEFEFFF73DFE00250BE0705DFFF7A7FE75
:10162000FFF736FE8046B8F1000F00D003E0681CDB
:10163000C5B2BD42F1DB00BFFFF70AFE4046BDE880
:10164000F0812DE9F04105460F461646FFF7DFFD14
:10165000BA20FFF78CFEFFF71BFE2812FFF787FE6C
:10166000FFF716FEE8B2FFF782FEFFF711FEFFF765
:10167000CEFDBB20FFF77BFEFFF70AFE00240BE048
:10168000711EA14201D0012100E000210846FFF7B0
:1016900098FE3855601CC4B2B442F1DBFFF7D8FDA8
:1016A000BDE8F0812DE9F04104460D4600260027F3
:1016B00000BF0DE0EAB2214640F2A260FFF793FFBF
:1016C000064606B906E00A2002F043F8781CC7B2C5
:1016D000052FEFDB00BF3046BDE8F08110B50020DC
:1016E000884908600A2002F034F801208649C1F8D0
:1016F0008801642002F02DF810BD10B586B00024DA
:101700000121084603F0C2F80420ADF808001020BB
:101710008DF80B0003208DF80A0002A97B4802F027
:10172000F9FD0421794802F0A2FE4FF48060ADF883
:10173000080048208DF80B0003208DF80A0002A94C
:10174000734802F0E7FD4FF48061714802F08FFEAC
:101750000A21052002F0F4FE4FF48060039000207F
:101760008DF810000C208DF8110001208DF812006A
:1017700003A804F00FFA28208DF8140003208DF838
:1017800015008DF8160001208DF8170005A802F04D
:10179000F2F9FFF717FDFFF7A1FF012201A940F2BF
:1017A0001770FFF74EFF9DF804000402012201A903
:1017B0004FF4E360FFF745FF9DF804000443214622
:1017C00054A007F0FDF942F21000844205D16A21CD
:1017D0005448FFF767FF019001E0022001909DF857
:1017E000040006B010BD00B589B0454890F821004E
:1017F00000F0800008B909B000BD2222694640F21D
:101800002170FFF71EFF9DF8000000F01F003C490B
:1018100081F821009DF803009DF8021000EB0120E3
:10182000C0F5F070364948829DF805009DF8041017
:1018300000EB0120324908819DF8060008779DF8E9
:1018400008009DF8071000EB0120C0F5F07081B290
:101850002B4881829DF80A009DF8091000EB0120B9
:1018600081B2274841819DF80B1041779DF80D000A
:101870009DF80C1000EB0120C0F5F07081B22048FB
:10188000C1829DF80F009DF80E1000EB012081B27F
:101890001B4881819DF8101081779DF818009DF8F4
:1018A000111000EB0120C0F5F07081B214480183E3
:1018B0009DF81A009DF8191000EB012081B2104824
:1018C000C1819DF81B10C1779DF81D009DF81C106B
:1018D00000EB0120C0F5F07081B2094841839DF80A
:1018E0001F009DF81E1000EB012081B20448018208
:1018F0009DF8201080F8201000BF7CE7288123424B
:101900001C0000208881214200802142000C0140FF
:10191000001C014076657273696F6E3A25780D0A76
:10192000000000007CAA010810B540F2255158487B
:1019300004F0DEF8F8B1564804F05AF8C4B255483D
:10194000008800F40040B0B952480088B0F5167F16
:1019500012DA0021504803F0C1FE4E48008818B941
:1019600001214D4803F026FC4A490888411C494A98
:1019700011804A490C5405E04648008840F4004074
:101980004449088010BD10B586B0044601210820E6
:1019900002F07CFF0121880402F085FF3C4803F03F
:1019A000E7FE4FF48060ADF8100003208DF81200C0
:1019B00018208DF8130004A9394802F0ABFC4FF44D
:1019C0000060ADF8100004208DF8130004A934481D
:1019D00002F0A0FC00940020ADF80400ADF8060071
:1019E000ADF80800ADF80C000C20ADF80A0069460F
:1019F000274803F000FF0121254803F088FF01225A
:101A000040F22551224803F08EFF27208DF8140064
:101A100002208DF8150003208DF8160001208DF8A6
:101A2000170005A802F0A7F841F61F4140F2E73081
:101A3000FFF790FD0020174908800021164803F0A9
:101A4000B9FB06B010BD0FB438B505A80090154815
:101A5000009A049907F0A2F800200090114807F0BE
:101A6000BBFA85B200240DE000BF4021084804F015
:101A700029F80028F9D00B48015D054803F0B4FFB0
:101A8000601C84B2AC42EFDB38BC5DF814FB000094
:101A9000004800404000002000140040D004002016
:101AA000000C01402807002001460020012900D039
:101AB00011B9FE4B197000E0262070470146FC4A20
:101AC000506820F0FF0008435060704770B504462E
:101AD00005E0F748456B05F0450000B100E0F8E788
:101AE00000BF042004F0C5FA20B1042004F0CBFAB2
:101AF000032070BD012004F0BCFA20B1012004F0E5
:101B0000C2FA0120F5E7EA480069A04201D010209E
:101B1000EFE740F2FF50E649886308464069082134
:101B20000840C0B2E5E72DE9FC4107460D46002616
:101B300000240020009001900820DE490860102059
:101B40004860402088600020C8604FF480600861D1
:101B5000084604F017FA1020FFF7B8FF044614B146
:101B60002046BDE8FC81D44800880004D1490860C3
:101B700037204860402088600020C8604FF48060B3
:101B80000861084604F0FEF93720FFF79FFF04467E
:101B90000CB12046E5E74FF0FF30C8490860082047
:101BA0004860302088600220C86000200861012061
:101BB0004861084604F00FFA0020BE49086033204F
:101BC0004860402088600020C8604FF48060086151
:101BD000084604F0D7F93320FFF778FF04460CB12C
:101BE0002046BEE70CE04FF4001004F042FA38B192
:101BF00004F013FA4DF82600761C022E00D306E0FE
:101C0000AB48406B40F22A6108400028EBD000BF8F
:101C1000082004F02EFA20B1082004F034FA042041
:101C20009FE7022004F025FA20B1022004F02BFAED
:101C3000022096E7202004F01CFA20B1202004F0B6
:101C400022FA06208DE74FF4007004F012FA28B152
:101C50004FF4007004F017FA072082E740F2FF50BB
:101C600004F011FA00980006009901F47F4140EA5F
:101C70000120009901F47F0140EA1120009940EA17
:101C80001160686001980006019901F47F4140EA03
:101C90000120019901F47F0140EA1120019940EAF5
:101CA0001160286020465CE77CB5054600240020D2
:101CB0000090019000260DB1022600E000267C482D
:101CC000406900F0007008B10E207CBD7A49098897
:101CD00088B26946FFF727FF04460CB12046F4E7B7
:101CE000019800F4802060B37348008800047149B3
:101CF000086037204860402088600020C8604FF4AA
:101D000080600861084604F03DF93720FFF7DEFEE9
:101D100004460CB12046D8E76648066006206549AF
:101D20004860402088600020C8604FF480600861EF
:101D3000084604F027F90620FFF7C8FE04462046AF
:101D4000C3E72520C1E770B5044600255C4800784C
:101D5000032801D1272070BD5948007838B1584870
:101D60000078012803D056480078022818D1022CA8
:101D700001D32720EFE7E0B2FFF796FF05467DB9D4
:101D80004B48406820F4C0504949486008464068C4
:101D9000A1B240EAC1204649486008464068486010
:101DA0002846D8E710B50446424804600720414958
:101DB0004860402088600020C8604FF4806008615F
:101DC000084604F0DFF80720FFF780FE10BDF0B5ED
:101DD0000146002000223A4B1B7881F85630364BE2
:101DE0001B88A1F85430374B1B681A0E93090B70EF
:101DF000C2F383034B7002F003038B70314B1B68FB
:101E0000C3F30742CA702F4B1B88C3F307220A7122
:101E10002C4B1A784A715B681A0E1301CB80294B40
:101E20005B68C3F30742CB8843EA1213CB8002F00E
:101E30000F030B72234B9B88C3F30722D3094B720A
:101E4000C2F380138B72C2F34013CB72C2F3001340
:101E50000B7300234B731A4B1B783BB1184B1B7849
:101E6000012B03D0164B1B78032B5ED193071B0D60
:101E70000B61144B1A790B6943EA82030B61114B16
:101E80009B681A0E0B6943EA92130B61C2F3C203FB
:101E90000B7502F007034B750A4B9B68C3F30742AF
:101EA00053098B75C2F38203CB750DE04C00002003
:101EB000008001409809002048000020AC09002063
:101EC00044000020C409002093075B0F0B76F74BFA
:101ED0001B89C3F307220B7E43EAD2130B760B69EF
:101EE0005B1C0024C1E912340B7E9B1C012404FA04
:101EF00003F3DC17D1E91256A5FB037C06FB03C3F1
:101F000005FB0433C1E912730C7A0123A3400B656E
:101F10000024D1E912650B6DA6FB037C05FB03C30E
:101F200006FB0433C1E912732EE0E14B1B78022B50
:101F30002AD1DE4B1A7993069B0A0B61DB4B9B6817
:101F40001A0E0B6943EA02230B61D84B9B68C3F35B
:101F500007420B6913430B61D44B1B89C3F3072260
:101F60000B695B1C4FF40074A3FB04464FF48063C1
:101F70000025A4FB037C06FB03C304FB0533C1E976
:101F800012734FF400730B65C2F3801301F8193F0D
:101F900093065B0E4B70C54B1A7A4B7843EAD2130B
:101FA0004B7002F07F038B70C04BDB681A0ED309B5
:101FB000CB70C2F341130B71C2F382034B719307D1
:101FC0001B0F8B71B94BDB68C3F307428B7943EA74
:101FD00092138B71C2F34013CB7100230B7202F08A
:101FE00001034B72B14B9B89C3F30722D3098B7258
:101FF000C2F38013CB72C2F340130B73C2F300130E
:102000004B73C2F381038B7302F00303CB73A74BB3
:102010001A7B53080B7401234B74A64B1B681A0ED2
:10202000CA741939A34B1B68C3F307421402CC8549
:10203000A04B1B88C3F30722CB8D1343CB859D4B4D
:102040001A7814060C635B681A0E0B6B43EA0244A1
:102050000C63984B5B68C3F307420B6B43EA0224A3
:102060000C63944B9B88C3F307220B6B13430B63E6
:10207000904B1A7934235A548E4B9B681A0E352391
:102080005A548C4B9B68C3F3074214068C63894BEC
:102090001B89C3F307228B6B43EA02448C63854B95
:1020A0001A7A8B6B43EA02248C63824BDB681A0E2C
:1020B0008B6B13438B637F4BDB68C3F307423C237B
:1020C0005B5C43EA12143C235C5413071C0DCC8761
:1020D000784B9B89C3F30722CB8F1343CB87754B78
:1020E0001A7B540840235C54012441235C54F0BD06
:1020F00070B500264FF4803505E06F48446B04F05E
:10210000450000B103E02800A5F10105F5D100BFAD
:1021100015B104F0040028B10326042003F0B3FF36
:10212000304670BD012003F0A4FF18B10126012044
:1021300003F0A9FF40F2FF5003F0A5FF3046F0E79F
:102140002DE9F04105460E464FF0000805E05A48DB
:10215000476B07F0450000B100E0F8E700BF04203E
:1021600003F087FF28B1042003F08DFF0320BDE8B2
:10217000F081012003F07DFF20B1012003F083FFF7
:102180000120F4E74C480069A84201D01020EEE796
:1021900040F2FF5003F077FF4748446904F4604081
:1021A00018B9200C30804046E1E704F4005008B133
:1021B0001320DCE704F4804008B11020D7E704F4D2
:1021C000004008B10F20D2E74046D0E738B50024E0
:1021D0000120009003F0C1FE08B9252038BD344825
:1021E0000078042821D0002034490860022048608B
:1021F000C02088600020C8604FF4806008610846F5
:1022000003F0C0FEFFF774FF04460CB12046E5E77B
:10221000294840692749086027488069486026485E
:10222000C06988602448006AC8602148007858B1B5
:102230001F480078012807D01D480078062803D0E1
:102240001B480078022816D100201C490860032092
:102250004860402088600020C8604FF480600861BA
:10226000084603F08FFE69460320FFF769FF044626
:102270000CB12046B2E70E480078032820D1BDF803
:10228000000000040D490860032048604020886079
:102290000020C8604FF480600861084603F072FEB9
:1022A000FFF726FF04465CB1204697E7C4090020EB
:1022B00044000020D409002000800140980900203B
:1022C000FE480078042827D0BDF80000FC490860CB
:1022D000BDF800000004FB49086009204860C020E8
:1022E00088600020C8604FF480600861084603F0F1
:1022F00049FEFFF7FDFE04460CB120466EE7F248AA
:102300004069F2490860F04880694860EE48C06959
:102310008860ED48006AC86000205FE710B505E0FE
:10232000E948446B04F0450000B100E0F8E700BF65
:10233000042003F09EFE20B1042003F0A4FE03203D
:1023400010BD40F2FF5003F09EFE0020F8E770B58C
:1023500000264FF4803505E0DB48446B04F045006F
:1023600000B103E02800A5F10105F5D100BF15B1CA
:1023700004F0040028B10326042003F084FE304654
:1023800070BD04F0400018B10026402003F07BFE31
:102390003046F5E770B500254FF4803404E0802026
:1023A00003F067FE00B103E02000A4F10104F6D1C0
:1023B00000BF0CB9032070BD40F2FF5003F063FE74
:1023C0002846F8E72DE9F0470027002400260025DD
:1023D000A046A146B220BE490875002008604860AA
:1023E0008860C8600861084603F08CFD032003F094
:1023F000A9FD012003F0A3FD00BF12E00020B149B8
:10240000086048608860C8604FF4806008610846D2
:1024100003F0B8FDFFF7BEFF044604B903E0781CE3
:10242000C7B24A2FEADB00BF14B12046BDE8F087EF
:102430004FF4D570A34908600820486040208860A8
:102440000020C8604FF480600861084603F09AFDE0
:10245000FFF77DFF044624B90120984908704FF02A
:1024600080490020974908603720486040208860F4
:102470000020C8604FF480600861084603F082FDC8
:102480003720FFF723FB0446002C4BD134E000201B
:102490008C49086037204860402088600020C86070
:1024A0004FF480600861084603F06CFD3720FFF7A9
:1024B0000DFB04460CB12046B8E7864849EA000007
:1024C0008049086029204860402088600020C8605A
:1024D0004FF480600861084603F054FDFFF71EFFCB
:1024E00004460CB12046A1E777484669012080EAFE
:1024F000D67080F001086D1CB8F1000F03D14FF6C3
:10250000FF708542C3D34FF6FF70854202D31B2470
:1025100020468BE706F08040060032D00220674953
:1025200008702EE01CE06C48664908600120486095
:10253000402088600020C8604FF480600861084631
:1025400003F020FDFFF7EAFE04460CB120466DE7DC
:102550005D484669012080EAD67080F001086D1C54
:10256000B8F1000F03D14FF6FF708542DBD34FF671
:10257000FF70854202D31B24204657E703204F49B2
:102580000870204652E77CB5002500240121302048
:1025900002F07CF9012140F2024002F06AF94FF4A6
:1025A000F850ADF8000018208DF8030003208DF8D6
:1025B00002006946494801F0ADFE0420ADF8000074
:1025C00018208DF8030003208DF802006946444866
:1025D00001F0A0FE8020ADF8000048208DF8030037
:1025E00003208DF8020069463D4801F093FE03F098
:1025F0007BFC31208DF8040000208DF805008DF85B
:10260000060001208DF8070001A801F0B4FAFFF7D9
:10261000D9FE044614B9FFF7D9FD04461CB9314868
:10262000FFF7D5FB044634B92E49B1F8541008041D
:10263000FFF7B8FB04461CB90120FFF784FB0446F2
:102640001CB11E480078032812D1264890F8560085
:1026500020B1244890F85600012801D10A2500E055
:1026600004252846FFF72AFA0020FFF71DFA044642
:1026700020467CBD10B5002003F064FC002010BD96
:1026800070B58CB006460C4615460121022002F0BA
:10269000F0F8154803F0FEFA0021134803F0C7FBD9
:1026A00009488030019002960395A008049000200C
:1026B0000590802006908000079017E044000020DD
:1026C000480000209809002000800140C409002033
:1026D00080090020000010800080FF800010014071
:1026E00000140140E80900204404024080000890E2
:1026F000002009904FF400500A9000200B9001A98F
:10270000FA4803F069FB0021F84803F090FB0CB095
:1027100070BD0146002002E04910421CD0B20129E0
:10272000FAD170472DE9F84F8146174698460A9C22
:102730004FF0000AD3464D464FF0FF36B9F1000F77
:1027400002D12620BDE8F88F0020E949C862E94897
:102750000078022805D10402780A40EAC8574FEAF7
:1027600068280020E44988604860401E0860012015
:1027700048610020C8600861084603F02CFCDC4872
:10278000406900F0007008B10E20DBE7002C21DD6D
:10279000B4F5006F1EDC601E2040D8B92046FFF75C
:1027A000B8FF0090D54804601020D449486040200C
:1027B00088600020C8604FF480600861084603F01C
:1027C000E1FB1020FFF782F98246BAF1000F03D037
:1027D0005046B7E72620B5E700980001C649886053
:1027E000084644604FF0FF30086001204861022035
:1027F000C86000200861084603F0EDFBBF48076091
:102800001120BE494860402088600020C8604FF415
:1028100080600861084603F0B5FB1120FFF756F908
:102820008246BAF1000F01D050468BE7B4480078D9
:1028300000285AD100F0BCFF18E04FF4004003F02C
:1028400018FC78B14FF0000B06E0A9488030006812
:1028500045F82B000BF1010BBBF1080FF5D3203528
:10286000A84E03E00EB904206CE7761EA048406B2A
:1028700040F22A6108400028DFD0082003F0F9FB6D
:1028800020B1082003F0FFFB04205BE7022003F0E7
:10289000F0FB20B1022003F0F6FB022052E72020DB
:1028A00003F0E7FB20B1202003F0EDFB062049E711
:1028B0004FF4007003F0DDFB28B14FF4007003F01B
:1028C000E2FB07203EE703E003F0A7FB28602D1D95
:1028D0004FF4001003F0CDFB0028F5D100F06AFFA3
:1028E00040F2FF5003F0CFFB32E08548007801282A
:1028F0002ED1002221464846FFF7C2FE0020824921
:10290000087082490870824908707948C06B40F2AB
:102910002A3108437649C863012003F030FB00E008
:10292000761E72484438006800F4005038B9784880
:10293000007820B97448007808B9002EF0D10EB99B
:102940000420FFE67048007810B16F4890F800A0AE
:102950005046F7E62DE9FF5F17469846DDE90E463B
:102960004FF00009CA464FF0FF356A4900980860E9
:1029700000205F49C8625F480078022805D1040240
:10298000780A40EAC8574FEA682800205A49886008
:102990004860401E0860012048610020C86008614E
:1029A000084603F018FB5248406900F0007018B167
:1029B0000E2004B0BDE8F09F002C21DDB4F5006FBF
:1029C0001EDC601E2040D8B92046FFF7A2FE8346D9
:1029D0004A4804601020494948604020886000202F
:1029E000C8604FF480600861084603F0CBFA1020FD
:1029F000FFF76CF88146B9F1000F03D04846D8E7DD
:102A00002620D6E7012E70D906FB04F0B0F1007F36
:102A100001D32620CDE74FEA0B103749886006FB2B
:102A200004F048604FF0FF30086001204861022048
:102A3000C86000200861084603F0CDFA2F480760FF
:102A400012202E494860402088600020C8604FF462
:102A500080600861084603F095FA1220FFF736F807
:102A60008146B9F1000F01D04846A2E7244800781A
:102A700000287DD100F09CFE1EE04FF4004003F0E2
:102A8000F8FAA8B14FF0000A08E019488030006851
:102A90002049096841F82A000AF1010ABAF1080F31
:102AA000F3D31C48006820301A490860154D03E034
:102AB0000DB904207DE76D1E0D48406B40F22A31B0
:102AC00008400028D9D0082003F0D3FA20B108200C
:102AD00003F0D9FA04206CE7022003F0CAFAD8B157
:102AE000022003F0D0FA022063E7A4E0440402408D
:102AF0000080014044000020AC090020980900201B
:102B00004C000020FFFF7F004E0000204D00002001
:102B10004F00002050000020202003F0AAFA20B12E
:102B2000202003F0B0FA062043E74FF4007003F0D2
:102B3000A0FA28B14FF4007003F0A5FA072038E797
:102B400009E003F06AFAFA4909680860F848006881
:102B5000001DF74908604FF4001003F08AFA0028BE
:102B6000EFD14FF4807003F084FA20B3F14800E015
:102B700028E0007838B1EF480078012803D0ED480C
:102B80000078022817D10020EB4908600C2048602B
:102B9000402088600020C8604FF4806008610846CB
:102BA00003F0F0F90C20FEF791FF8146B9F1000F18
:102BB00001D04846FDE600F0FDFD40F2FF5003F075
:102BC00062FA38E0DD480078012834D106FB04F1D0
:102BD00000220098FFF754FD0020D9490870012019
:102BE000D84908700020D8490870D848C06B40F216
:102BF0002A310843D549C8630846C06A40F0080036
:102C0000C86200E06D1ED248006800F4005008B9A8
:102C1000002DF7D10DB90420CBE600BFCA480078DB
:102C200018B9C74800780028F8D0C548007810B116
:102C3000C34890F800904846BBE61CB50446002007
:102C400001900090C34800880004BB4908600D2033
:102C50004860402088600020C8604FF480600861B0
:102C6000084603F08FF9B948406B009002E0B7487E
:102C7000406B0090009800F045000028F7D001203C
:102C800003F0F7F920B1012003F0FDF901201CBD8C
:102C9000042003F0EEF920B1042003F0F4F903203E
:102CA000F5E7AA4800690D2801D01020EFE740F2AF
:102CB000FF5003F0E8F9A548406901900198C0F37E
:102CC000432020700020E2E72DE9FF5F86B0174621
:102CD0009846149D0026002005900490002481460B
:102CE0000390824602900195DDF818B0DDF818B027
:102CF000BBF1000F03D126200AB0BDE8F09F0020F1
:102D00009249C862944988604860401E086001206A
:102D100048610020C8600861084603F05CF98B48F0
:102D2000406900F0007008B10E20E5E781480078A6
:102D3000022805D10502780A40EAC8574FEA6828F8
:102D4000002D1FDDB5F5006F1CDC681E2840C8B9DA
:102D50002846FFF7DEFC059077480560102076498D
:102D60004860402088600020C8604FF4806008619F
:102D7000084603F007F91020FEF7A8FE06461EB12C
:102D80003046B9E72620B7E77248008800046A4950
:102D900008600D204860402088600020C8604FF423
:102DA00080600861084603F0EDF80D20FEF78EFE06
:102DB00006460EB130469FE76448406903904FF0E5
:102DC000FF341BE0641E6348008800045A49086011
:102DD0000D204860402088600020C8604FF480606B
:102DE0000861084603F0CEF80D20FEF76FFE064698
:102DF0000EB1304680E7554840690390039800F4CF
:102E0000807008B9002CDDD10CB9292074E74A483C
:102E10000760182048494860402088600020C8604A
:102E20004FF480600861084603F0ACF81820FEF704
:102E30004DFE06460EB130465EE70020414908705F
:102E40000598000144498860084645604FF0FF300E
:102E50000860012048610020C8600861084603F04E
:102E6000BAF84FF0FF343548007800285FD100F001
:102E70009FFC43E04FF4804003F0FBF8C8B3019897
:102E8000A0EB0900202821D20198A0EB090000F056
:102E9000030020B90198A0EB0900800804E0019824
:102EA000A0EB09008008401C02904FF0000A09E0E6
:102EB000DBF8000003F0B5F80AF1010A0BF1040B8E
:102EC00009F1040902988245F2D30FE04FF0000A9D
:102ED00005E05BF82A0003F0A4F80AF1010ABAF150
:102EE000080FF6D30BF1200B09F120096FF04044D5
:102EF00004E0FFE70CB90420FEE6641E1348406BB3
:102F000040F21A6108400028B4D0082003F0B1F85C
:102F100020B1082003F0B7F80420EDE6022003F00A
:102F2000A8F8D8B1022003F0AEF80220E4E630E0C1
:102F30005000002044000020980900204C00002090
:102F40004E0000204D0000204F0000200080014076
:102F50000004024048000020AC090020102003F0CB
:102F600088F820B1102003F08EF80520C4E64FF455
:102F7000007003F07EF828B14FF4007003F083F87E
:102F80000720B9E600F016FC40F2FF50FC498863C8
:102F90003EE0FC48007801283AD1102229460698E4
:102FA000FFF76EFB0020F8490870F8490870F849EF
:102FB0000870F348C06B40F21A310843F049C86307
:102FC0000846C06A40F00800C86200E0641EF1488C
:102FD000006800F4005008B9002CF7D11CB9FFF7C5
:102FE000D2FA042088E64FF0FF3400E0641EE8487F
:102FF000007820B9E448007808B9002CF6D10CB963
:10300000042079E6E048007810B1DF48007873E6E4
:1030100040F2FF5003F037F804A8FFF70EFE064613
:1030200003E004A8FFF709FE06463EB99DF810002C
:103030000728F6D09DF810000628F2D030465BE64F
:103040002DE9FF5F84B0DDE91247002600200390E0
:103050000290002580468146019007FB04FBDDF8C5
:1030600010A0DDF810A0BAF1000F03D1262008B09F
:10307000BDE8F09F0020C249C862C7498860486027
:10308000401E0860012048610020C86008610846B1
:1030900002F0A1FFBA48406900F0007008B10E20AC
:1030A000E5E7BE480078022808D10402DDE9060100
:1030B000400A40EAC1504912CDE90601002C1FDD4B
:1030C000B4F5006F1CDC601E2040C8B92046FFF735
:1030D00020FB0390B24804601020B14948604020B2
:1030E00088600020C8604FF480600861084602F0E4
:1030F00049FF1020FEF7EAFC06461EB13046B6E74F
:103100002620B4E7012F6FD907FB04F0B0F1007F50
:1031100001D32620ABE7A148007838B19F4800785A
:10312000012803D09D48007802282DD19D480088B1
:1031300000049B49086037204860402088600020D8
:10314000C8604FF480600861084602F01BFF37201A
:10315000FEF7BCFC06460EB1304688E79048076093
:1031600017208F494860402088600020C8604FF4D5
:1031700080600861084602F005FF1720FEF7A6FCF4
:1031800006460EB1304672E7854906980860192058
:103190004860402088600020C8604FF4806008616B
:1031A000084602F0EFFE1920FEF790FC06460EB12D
:1031B00030465CE7039800017749886007FB04F01C
:1031C00048604FF0FF300860012048610020C8606F
:1031D0000861084602F0FFFE6A480078002871D1B5
:1031E000451E00F0E5FA40E0F3E06548406B00F46E
:1031F0008040A8B3ABEB080020281ED2ABEB080040
:1032000000F0030018B9ABEB0800800803E0ABEB5B
:1032100008008008401C01904FF0000909E0DAF82E
:10322000000002F0FEFE09F101090AF1040A08F1AA
:10323000040801988145F2D30FE04FF0000905E042
:103240005AF8290002F0EDFE09F10109B9F1080F61
:10325000F6D30AF1200A08F120086FF0404504E097
:10326000FFE70DB9042002E76D1E4548406B40F2B0
:103270001A3108400028B8D0082002F0FAFE20B128
:10328000082002F000FF0420F1E6022002F0F1FE27
:1032900020B1022002F0F7FE0220E8E6102002F042
:1032A000E8FE20B1102002F0EEFE0520DFE64FF42C
:1032B000007002F0DEFE30B14FF4007002F0E3FE69
:1032C0000720D4E62CE04FF4807002F0D2FE00B369
:1032D0003248007838B131480078012803D02F48AF
:1032E0000078022815D100202D4908600C20486084
:1032F000402088600020C8604FF480600861084664
:1033000002F040FE0C20FEF7E1FB06460EB130460F
:10331000ADE600F04FFA40F2FF5002F0B4FE58E084
:1033200018480078012854D107FB04F110220498B2
:10333000FFF7A6F90020144908700120134908700E
:103340000020134908700E48C06B40F21A31084340
:103350000B49C8630846C06A40F00800C8624FF0D5
:10336000FF3500E06D1E0B48006800F4005008B9FE
:10337000002DF7D1C5B9FFF706F9042077E6000064
:10338000008001404C0000204E0000204D00002035
:103390004F00002000040240AC090020440000203F
:1033A00098090020480000204FF0FF3500E06D1E16
:1033B000C248007820B9C248007808B9002DF6D17B
:1033C0000DB9042053E6BE48007810B1BC4800781F
:1033D0004DE640F2FF5002F056FE02A8FFF72DFC2A
:1033E000064603E002A8FFF728FC06463EB99DF812
:1033F00008000728F6D09DF808000628F2D03046CD
:1034000035E610B5AF48406B00F4807070B3AE483D
:103410000078012814D10020AC4908600C204860D5
:10342000402088600020C8604FF480600861084632
:1034300002F0A8FD0C20FEF749FBA149087002E04C
:1034400000209F4908709F48806B40F480709D4920
:1034500088630846C06B4CF23A3188439949C86387
:103460000120964908709648007810BD022002F0AD
:1034700000FE68B1022002F006FE9248C06B4CF2DA
:103480003A3188438F49C86302208D490870ECE7C0
:10349000082002F0EEFD68B1082002F0F4FD894832
:1034A000C06B4CF23A3188438649C8630420844992
:1034B0000870DAE7202002F0DCFD68B1202002F07D
:1034C000E2FD8048C06B4CF23A3188437D49C863C5
:1034D00006207B490870C8E7102002F0CAFD68B1D9
:1034E000102002F0D0FD7748C06B4CF23A3188438F
:1034F0007449C863052072490870B6E74FF400703C
:1035000002F0B7FD70B14FF4007002F0BCFD6D48E1
:10351000C06B4CF23A3188436A49C8630720684956
:103520000870A2E70020A0E710B5FFF76AFF10BD02
:1035300070B50446002514B92625284670BD644898
:1035400000880004614908600D20486040208860C0
:103550000020C8604FF480600861084602F012FD48
:103560000D20FEF7B3FA05460DB12846E6E75548AB
:10357000406920602846E1E708B5002000906846D1
:10358000FFF7D6FF08B1FF2008BD0098C0F3432025
:10359000FAE72DE9FE4F83460C4691460020029043
:1035A000002625462C46700240EAD5566D020BF0E7
:1035B0000300F0B14FF0000A18E04FF400700090E3
:1035C0004FEA4A20471946EBE0733A464148FFF775
:1035D000A9F802904FF400723E49584605F01BFDD1
:1035E0000BF5007B0AF1010000F0FF0ACA45E4DB9D
:1035F00016E0B9F1010F09D14FF400702A463346A5
:1036000000905846FFF78EF8029009E04FF40070E2
:103610002A463346CDE900095846FFF79BF9029048
:103620000298BDE8FE8F2DE9FE4F81460C4692467A
:1036300000200290002625462C46700240EAD5560E
:103640006D0209F00300F0B14FF0000B18E04FF4E9
:10365000007249461F4805F0DEFC4FF400700090F0
:103660004FEA4B20471946EBE0733A461948FFF7FB
:103670002BFB029009F500790BF1010000F0FF0B24
:10368000D345E4DB16E0BAF1010F09D14FF4007025
:103690002A46334600904846FFF716FB029009E0A1
:1036A0004FF400702A463346CDE9000A4846FFF73A
:1036B000C7FC02900298BDE8FE8F00004F0000207A
:1036C0004E000020008001404D000020980900209D
:1036D00048000020400A002010B56FF0040000F000
:1036E00094FA2E4800682E49B0FBF1F02D4908707D
:1036F0000846007800EB4001C1EBC0104FF6FF71A7
:1037000001EAC0002849088010BD0146254A127808
:103710004A434FF0E0235A6100229A611A46126927
:1037200042F001021A6100BF4FF0E022106900F080
:1037300001021AB100F48032002AF5D04FF0E022E5
:10374000126922F001024FF0E0231A6100229A610F
:1037500070470146144A12884A434FF0E0235A61E9
:1037600000229A611A46126942F001021A6100BFF2
:103770004FF0E022106900F001021AB100F480322B
:10378000002AF5D04FF0E022126922F001024FF03A
:10379000E0231A6100229A617047000000000020B7
:1037A00000127A00540000205600002030BF7047FD
:1037B00072B6704762B67047014600BF704700BFDF
:1037C0004B4A128802F04002002AF9D0C2B2484B9C
:1037D0001B1D1A80704710B586B00446012144F2C3
:1037E000050001F053F8424801F0C2FF4FF40070A9
:1037F000ADF8140003208DF8160018208DF817007E
:1038000005A93C4800F086FD4FF48060ADF8140037
:1038100004208DF8170005A9364800F07BFD25200F
:103820008DF8000003208DF801008DF802000120C2
:103830008DF80300684600F09EF901940020ADF871
:103840000800ADF80A00ADF80C00ADF810000C202F
:10385000ADF80E0001A9264801F0CDFF012240F28B
:103860002551234802F05FF80121214802F04FF86A
:1038700006B010BD10B540F225511D4802F038F9D0
:1038800010B31B4802F0B4F8C4B21B48008800F41F
:103890000040C8B91848008800F4804060B10A2C84
:1038A00003D000201449088020E01348008840F429
:1038B00000401149088019E00D2C06D10E480088FF
:1038C00040F480400C49088010E00B480088C0F3A9
:1038D0000D000A490C5408480088401C064908801D
:1038E00008460088C72801DD0020088010BD0000C0
:1038F00000380140000801405C000020400C00201E
:103900000948804709480047FEE7FEE7FEE7FEE773
:10391000FEE7FEE7FEE7FEE7FEE7FEE704480549AF
:10392000054A064B704700002304000831010008D7
:1039300020BA002020C4002020BC002020BC002091
:1039400070B503460C4603E014F8015B03F8015B15
:103950001500A2F10102F7D170BD30B5034601E0B8
:1039600003F8011B1400A2F10102F9D130BD10B51A
:1039700004467A4951F824104A00794951F8240044
:103980000021FFF7EAFF774951F8242074490839EC
:1039900051F824000021FFF7E0FF012170480830B2
:1039A000015510BD10B501460023002207E06C4808
:1039B00050F8210030F8120000B15B1C521C67481F
:1039C00050F821009042F2D864205843634C54F8D8
:1039D0002140B0FBF4F0C0B210BD2DE9F047044621
:1039E0000F460025A9465E480830005D20B95C48B6
:1039F00010380168204688471FB94FF0FF30BDE8F6
:103A0000F087594850F82400B7FBF0F6564850F8B4
:103A10002400B7FBF0F100FB117000B1761C4F4899
:103A200050F82400451E20E04D4850F8240030F89E
:103A3000150010B909F1010901E04FF00009B14585
:103A400012D14FF0000808E0454850F8240005EB7B
:103A5000080220F8126008F10108B045F4D342488A
:103A600050F824006843CAE76D1E002DDCDA4FF0E1
:103A7000FF30C4E72DE9F04104460E4638480830CF
:103A8000005D38B936481038016820468847012063
:103A9000BDE8F081334850F82400B04217D93248CD
:103AA00050F82400B6FBF0F12D4850F8240030F80F
:103AB0001120002507E00023294850F824004F1961
:103AC00020F817306D1C9542F5DB0020E0E702205E
:103AD000DEE770B505460C4604B970BD20480838CD
:103AE00050F82500261A31462846FFF7C3FF00BFCD
:103AF000F3E770B504460E4631462046FFF76DFFEA
:103B00000546681C08B9002070BD1548083850F8F3
:103B100024002844F8E72DE9F04104460F461646F4
:103B200031462046FFF759FF0546681C10B90020B2
:103B3000BDE8F0810A49083951F824104819324685
:103B40003946FFF7FDFE39462046FFF7C2FF04481D
:103B5000083850F824002844EAE70000E8AA0108E1
:103B600070000020F8AA0108F0AA010831490143B9
:103B7000314A1160704770B5002100230F22C478CC
:103B800004B32D4C246804F4E064C4F5E064210A15
:103B9000C1F10403CA40447804FA03F18478144064
:103BA00021430901254C0678A155047804F01F052E
:103BB0000124AC4005786D11AD0005F1E025C5F894
:103BC000004109E0047804F01F050124AC401C4DBD
:103BD0000678761145F8264070BD1A4A0A4002431D
:103BE000154B1B1F1A60704739B1134A121D12681A
:103BF0000243114B1B1D1A6006E00F4A121D12688A
:103C000082430D4B1B1D1A607047042808D14FF0EA
:103C1000E021096941F004014FF0E022116107E061
:103C20004FF0E021096921F004014FF0E022116119
:103C3000704700000000FA050CED00E000E400E031
:103C400080E100E080FFFF1F30B943F2DB0281001A
:103C5000A1F1C0410A6005E043F2D2028100A1F166
:103C6000C0410A606FF07042411C8900A1F1C0415F
:103C70000A608100A1F1C041C1F8042170471028F9
:103C80000AD118214FF020421166402151664FF0B1
:103C9000FC319166D16610E01821F74A116040218D
:103CA0004FF02042C2F884104FF0FC31F24A083243
:103CB00011604FF02042C2F88C1070471820EE4976
:103CC0002031086000200906C1F8A4004FF0FC3044
:103CD000E94928310860091D0860091D086070471E
:103CE000D0E901121143C2681143026911434269CC
:103CF000114382691143C2691143026A1143426A46
:103D00001143826A1143C26A1143026B1143026874
:103D10009200A2F1C0421160816808290BD10168AC
:103D20008900A1F1C041096841F0400201688900A1
:103D3000A1F1C0410A60416B0968426B526841EAD7
:103D40000211426B926841EA0221426B928941EA78
:103D50000241426B128A41EA0251426B127D41EAF2
:103D60000261426B926911430268521C9200A2F1F7
:103D7000C0421160C16AB1F5804F1BD1816B0968E7
:103D8000826B526841EA0211826B926841EA022119
:103D9000826B128A41EA0251826B127D41EA026112
:103DA000826B9269114302689200A2F1C042C2F88C
:103DB000041107E06FF0704201688900A1F1C04171
:103DC000C1F80421704730B5002100220023446867
:103DD00044F0080485682C43C5682C4305692C43CE
:103DE000456944EA4524856944EA4531C469246843
:103DF000C5696D6844EA0524C5692D8944EA05440E
:103E0000C5692D7B44EA0562046A2468056A6D6809
:103E100044EA0524056A2D8944EA0544056A2D7B98
:103E200044EA05630468102C05D14FF02044216654
:103E3000A266E36608E0904C21604FF02044C4F88D
:103E400088208D4C0C34236030BD016841F0100196
:103E5000426841EA4221826841EA4231864A203280
:103E60001160C1680968C268526841EA0221C268EB
:103E7000128941EA0241C268127B41EA02617E4A2C
:103E800028321160016909680269526841EA022119
:103E90000269128941EA02410269127B41EA026128
:103EA000754A2C321160416909684269526841EAD9
:103EB00002214269128941EA02414269127B41EAC8
:103EC00002614FF02042C2F8B0107047002101603B
:103ED0000221416000218160C16001614161816115
:103EE000C16101624FF48051416249008162002149
:103EF000C16201630F21426B1160426B5160FF216F
:103F0000426B91600F21426BD160426B1161426B39
:103F100051610021426B91610F21826B1160826BB4
:103F20005160FF21826B91600F21826BD160826BA7
:103F30001161826B51610021826B91617047102188
:103F40000160002141608160C16001614161816166
:103F5000FC21C2691160C2695160C2699160C26985
:103F6000D160026A1160026A5160026A9160026A5D
:103F7000D16070470021016041608160FC21C2680E
:103F80001160C2685160C2689160C268D160026904
:103F9000116002695160026991600269D1604269F1
:103FA000116042695160426991604269D160704715
:103FB00051B18200A2F1C042126842F001038200B6
:103FC000A2F1C042136009E08200A2F1C04212686F
:103FD0002A4B1A408300A3F1C0431A60704799B17D
:103FE000102808D14FF02042126E42F004024FF028
:103FF00020431A661DE0204A126842F004024FF086
:104000002043C3F8802014E0102809D14FF020424B
:10401000126E1A4BDB1E1A404FF020431A6608E05E
:10402000154A1268154BDB1E1A404FF02043C3F8A7
:104030008020704748B110492031096841F00401DF
:104040004FF02042C2F8A01009E00B492031096866
:104050000A4AD21E11404FF02042C2F8A010704709
:10406000B9B110280CD14FF02042126E42F040023C
:104070004FF020431A661FE0800000A0FEFF0F00F3
:10408000724A126842F040024FF02043C3F8802089
:1040900012E0102808D14FF02042126E6C4B1A40EB
:1040A0004FF020431A6607E0684A1268684B1A40CE
:1040B0004FF02043C3F880207047014600201029AC
:1040C00003D14FF02042506F02E0604A1432106872
:1040D000704710B5F2B1102807D14FF020435B6E46
:1040E0000B434FF02044636632E0B0F5807F08D187
:1040F000564B1B1D1B680B434FF02044C4F8843003
:1041000026E0524B24331B680B434FF02044C4F885
:10411000A4301DE0102807D14FF020435B6E8B4385
:104120004FF02044636613E0B0F5807F08D1474B21
:104130001B1D1B688B434FF02044C4F8843007E0FC
:10414000424B24331B688B434FF02044C4F8A43007
:1041500010BD10B5024600200023102A03D14FF0F5
:104160002044636E09E0B2F5807F03D1374C241DF3
:10417000236802E0354C2434236803EA01040CB1BF
:10418000012000E0002010BD102807D14FF0204290
:10419000526E8A434FF020435A6613E0B0F5807F99
:1041A00008D12A4A121D12688A434FF02043C3F8EF
:1041B000842007E0254A243212688A434FF02043C6
:1041C000C3F8A420704770B50246002000230024E5
:1041D0000025102A03D14FF02046736E09E0B2F596
:1041E000807F03D1194E361D336802E0174E243606
:1041F000336803EA010403EAD10514B10DB10120CB
:1042000000E0002070BD102808D14FF02042526E0F
:1042100022EAD1024FF020435A6615E0B0F5807FC4
:1042200009D10A4A121D126822EAD1024FF0204336
:10423000C3F8842008E0054A2432126822EAD10239
:104240004FF02043C3F8A42070470000800000A076
:10425000BFFF0F0010B50446CC48844208D10121AD
:10426000042000F02DFB0021042000F029FB46E093
:10427000C748844208D10121082000F021FB002119
:10428000082000F01DFB3AE0C248844208D1012119
:10429000102000F015FB0021102000F011FB2EE093
:1042A000BD48844208D10121202000F009FB0021F3
:1042B000202000F005FB22E0B848844208D101210B
:1042C000402000F0FDFA0021402000F0F9FA16E04D
:1042D000B348844208D10121802000F0F1FA002186
:1042E000802000F0EDFA0AE0AE48844207D10121B7
:1042F000801500F0E5FA0021A01500F0E1FA10BDEC
:1043000010B50121084600F0DBFA0021012000F081
:10431000D7FA10BD2DE9F041024600250026002005
:1043200000230024002791F803C00CF00F0591F83A
:1043300003C00CF0100CBCF1000F03D091F802C0C8
:104340004CEA050591F800C0BCF1000F31D01468AB
:1043500000202BE04FF0010C0CFA00F3B1F800C084
:104360000CEA03069E4220D183004FF00F0C0CFA9A
:1043700003F7BC4305FA03FC4CEA040491F803C0BC
:10438000BCF1280F06D14FF0010C0CFA00FCC2F86A
:1043900014C00AE091F803C0BCF1480F05D14FF0FA
:1043A000010C0CFA00FCC2F810C0401C0828D1D344
:1043B0001460B1F800C0BCF1FF0F34DD5468002078
:1043C0002EE000F1080C4FF0010808FA0CF3B1F8E8
:1043D00000C00CEA03069E4221D183004FF00F0C6F
:1043E0000CFA03F7BC4305FA03FC4CEA040491F809
:1043F00003C0BCF1280F05D100F1080C08FA0CF835
:10440000C2F8148091F803C0BCF1480F07D100F145
:10441000080C4FF0010808FA0CF8C2F81080401C94
:104420000828CED35460BDE8F0814FF6FF710180BB
:10443000022181700421C1707047024600209368F8
:104440000B400BB1012000E0002070470146886856
:1044500080B2704702460020D3680B400BB10120A8
:1044600000E0002070470146C86880B270470161D3
:104470007047416170470AB1016100E041617047D6
:10448000C16070474FF480320A438261816182616A
:1044900082698269704702460020434B18684FF6D4
:1044A0008073184040EA021008433F4B1860704781
:1044B0003E49C8617047F0B50A4600230024002138
:1044C000002500F00046B6F1004F02D1364EF169EA
:1044D00001E0354E7168C0F3034583B200F4401625
:1044E000B6F5401F08D121F070612F4E766826F096
:1044F00070662D4F7E6012E000F48016B6F5801FC6
:1045000006D1032606FA05F4A14341F0706106E0E6
:10451000460D360103FA06F6B14341F0706122B14F
:10452000460D360103FA06F6314300F00046B6F1B7
:10453000004F02D11C4EF16101E01B4E7160F0BDD5
:1045400030B500228B071C0F0F2303FA04F2164B21
:1045500008338C1053F824309343134C08348D10D7
:1045600044F8253023468C1053F824308C07240F50
:1045700000FA04F423430C4C08348D1044F8253021
:1045800030BD0A49DC310860704700000008014076
:10459000000C0140001001400014014000180140CF
:1045A000001C0140002001400000014000002042AA
:1045B000DF48006840F00100DD49086008464068B7
:1045C000DC490840DA49486008460068DA49084092
:1045D000D74908600846006820F480200860084633
:1045E000406820F4FE0048604FF41F008860704768
:1045F000CF49096821F48031CD4A1160114609681C
:1046000021F480211160B0F5803F03D0B0F5802FF8
:104610000ED106E0C649096841F48031C44A1160F0
:1046200007E0C349096841F4A021C14A116000E0D4
:1046300000BF00BF704710B50146002200230020D4
:104640004A11012A02D1BA4C236806E0022A02D19B
:10465000B74C236A01E0B64C636A01F01F020124E3
:1046600094401C400CB1012000E0002010BD38B582
:10467000002000900024002500BF3120FFF7DBFF61
:1046800005460098401C00900098B0F5A06F01D03E
:10469000002DF2D03120FFF7CEFF08B1012400E059
:1046A0000024204638BD01460020A14A106820F0B1
:1046B000F80040EAC10010607047A04908607047E8
:1046C000024600209A4B586820F47C1042EA01030D
:1046D0001843974B586070479849086670470146E1
:1046E0000020934A506820F0030008435060704750
:1046F0008F48406800F00C007047014600208C4A4B
:10470000506820F0F00008435060704701460020D8
:10471000874A506820F4E0600843506070470146C3
:104720000020834A506820F4605040EAC100506085
:10473000704729B17E4A527A02437D4B5A7204E097
:104740007B4A527A82437A4B5A7270477B49D831FE
:104750000860704701460020754A506820F44040C8
:104760000843506070470021714A20321170704A2E
:1047700082F82010012802D004280AD104E0012187
:104780006B4A2032117005E00521694A2032117010
:1047900000E000BF00BF7047694908607047644986
:1047A000096A0143624A11627047654944390860E9
:1047B000704730B500210022002400235C4D6D6855
:1047C00005F00C0121B1042905D0082923D105E009
:1047D0005C4D056022E05B4D05601FE0544D6D6847
:1047E00005F47012524D6D6805F48034022505EB16
:1047F00092421CB9544D554305600BE04C4D6D6819
:1048000005F400351DB1504D5543056002E04D4D96
:104810005543056002E04B4D056000BF00BF444DAD
:104820006D6805F0F0010909484D6B5C0568DD40D5
:1048300045603F4D6D6805F4E061090A434D6B5CCE
:104840004568DD4085603A4D6D6805F46051C90AE0
:104850003E4D6B5C4568DD40C560354D6D6805F4C7
:104860004041890B3A4D6B5CC568B5FBF3F50561BA
:1048700030BD29B12E4A526902432D4B5A6104E0E2
:104880002B4A526982432A4B5A61704729B1284A00
:1048900092690243264B9A6104E0254A9269824359
:1048A000234B9A61704729B1214AD2690243204BB8
:1048B000DA6104E01E4AD26982431D4BDA61704717
:1048C00029B11B4AD2680243194BDA6004E0184A46
:1048D000D2688243164BDA60704729B1144A1269D4
:1048E0000243134B1A6104E0114A12698243104BD0
:1048F0001A61704712494039086070470F49C8640F
:1049000070470B49C87170470948406A40F0807091
:1049100007494862704701460020054A92680A40EC
:104920000AB1012000E000207047014988727047F9
:10493000001002400000FFF8FFFFF6FE00004242B8
:104940008004424200127A0000093D007C000020F1
:104950008C00002010B50446FE48844208D1012195
:10496000C014FFF7ADFF0021E014FFF7A9FFC4E07A
:10497000B4F1804F08D101210846FFF7AEFF0021B6
:104980000120FFF7AAFFB8E0F348844208D10121D3
:104990000220FFF7A2FF00210220FFF79EFFACE0FC
:1049A000EE48844208D101210420FFF796FF002140
:1049B0000420FFF792FFA0E0E948844208D10121DA
:1049C0000820FFF78AFF00210820FFF786FF94E008
:1049D000E448844208D101211020FFF77EFF002126
:1049E0001020FFF77AFF88E0DF48844208D10121D8
:1049F0002020FFF772FF00212020FFF76EFF7CE0F0
:104A0000DA48844208D101214014FFF759FF002100
:104A10006014FFF755FF70E0D548844209D10121A9
:104A2000C804FFF74DFF00214FF40020FFF748FFB7
:104A300063E0D048844209D101210805FFF740FF17
:104A400000214FF48010FFF73BFF56E0CA48844234
:104A500009D101214805FFF733FF00214FF4001071
:104A6000FFF72EFF49E0C548844208D101214020CC
:104A7000FFF733FF00214020FFF72FFF3DE0C04844
:104A8000844208D101218020FFF727FF00218020E8
:104A9000FFF723FF31E0BB48844208D10121801594
:104AA000FFF71BFF0021A015FFF717FF25E0B64811
:104AB000844209D101210804FFF702FF00214FF4CD
:104AC0008030FFF7FDFE18E0B048844209D1012193
:104AD0004804FFF7F5FE00214FF40030FFF7F0FE29
:104AE0000BE0AB48844208D101218804FFF7E8FEBF
:104AF00000214FF48020FFF7E3FE10BD0022028862
:104B0000944B98420ED0994B98420BD0B0F1804F05
:104B100008D0914B984205D0904B984202D0904BD0
:104B2000984204D14FF68F731A404B881A438D4B2D
:104B3000984207D08C4B984204D04FF6FF431A405E
:104B4000CB881A4302808B8883850B880385814B31
:104B500098420BD0854B984208D08B4B984205D099
:104B60008A4B984202D08A4B984201D10B7A038635
:104B700001238382704770B5002400220023058C36
:104B80004FF6FE7635400584028C8388048B4FF601
:104B90008F752C40B51E2C400D882C43751E2A4065
:104BA0000D892A434D882A436A4DA8420BD06F4D88
:104BB000A84208D0744DA84205D0744DA84202D036
:104BC000734DA84213D14FF6F7752A404D892A43F9
:104BD0004FF6FB752A408D882A434FF6FF652B4020
:104BE0004FF6FF552B408D892B43CD892B43838076
:104BF0000483CD888586028470BD70B500240022B0
:104C00000023058C4FF6EF7635400584028C8388AF
:104C1000048B48F6FF752C404FF6FF452C400D885D
:104C20004FF6FF7606EA05252C434FF6DF752A403E
:104C30000D8906EA05152A434D8806EA05152A431B
:104C4000444DA84202D0494DA8421DD14FF67F7570
:104C50002A404D894FF6FF7606EA05152A434FF69E
:104C6000BF752A408D8806EA05152A434FF6FF35A1
:104C70002B404FF2FF752B408D8906EA85052B43AB
:104C8000CD8906EA85052B4383800483CD8805877B
:104C9000028470BD70B5002400220023058C4FF6FD
:104CA000FF6635400584028C8388848B4FF68F75B0
:104CB0002C404FF6FC752C400D882C434FF6FF55C9
:104CC0002A400D894FF6FF7606EA05252A434D88CE
:104CD00006EA05252A431F4DA84202D0234DA842CB
:104CE0001DD14FF2FF752A404D894FF6FF7606EA37
:104CF00005252A434FF6FF352A408D8806EA05250B
:104D00002A434EF6FF752B404DF6FF752B408D89DB
:104D100006EA05152B43CD8906EA05152B4383804A
:104D20008483CD888587028470BD70B500220023FE
:104D30000024058C4EF6FF7635400584038C84886C
:104D4000828B48F6FF752A404FF6FF452A400D88B2
:104D500020E00000002C014000040040000800405A
:104D6000000C0040001000400014004000340140DE
:104D7000004C014000500140005401400018004028
:104D8000001C004000200040004001400044014061
:104D9000004801404FF6FF7606EA05252A434DF606
:104DA000FF752B400D8906EA05352B434D8806EA31
:104DB00005352B43FA4DA84202D0FA4DA84208D13E
:104DC0004BF6FF752C408D894FF6FF7606EA851568
:104DD0002C4384808283CD88A0F84050038470BD2A
:104DE000828B4FF2FF331A408283828B4FF6FF7320
:104DF00003EA01231A4382837047F0B50C46154637
:104E0000002200210026078C4EF6FF7C07EA0C07E3
:104E10000784828B018C4FF6FF7707EA043640F651
:104E2000FF473A404FF6FF7707EA05273A434FF628
:104E3000FF7707EA03373A43D94FB8420ED0D94F2C
:104E4000B8420BD0B0F1804F08D0D74FB84205D050
:104E5000D64FB84202D0D64FB84206D14DF6FF77B2
:104E6000394046F48057394305E047F6FF5739404B
:104E700044F48057394382830184F0BD828B4FF61E
:104E8000F3731A408283828B0A4382837047F0B5A2
:104E90000C461546002200210026078C4FF6FF6CB9
:104EA00007EA0C070784828B018C4FF6FF7707EA2D
:104EB00004264FF60C773A404FF6FF7707EA0317C0
:104EC0002F433A43B64FB8420ED0B64FB8420BD03C
:104ED000B0F1804F08D0B44FB84205D0B34FB842BC
:104EE00002D0B34FB84206D14FF6FF57394046F4CF
:104EF0008077394305E04FF2FF57394044F480771B
:104F0000394382830184F0BD028B4FF2FF331A4094
:104F10000283028B4FF6FF7303EA01231A430283D5
:104F20007047F0B50C461546002200210026078C7C
:104F30004FF6EF7C07EA0C070784028B018C4FF6D3
:104F4000FF7707EA041640F6FF473A404FF6FF772F
:104F500007EA03373A434FF6FF7707EA05273A4354
:104F60008F4FB8420ED08F4FB8420BD0B0F1804F68
:104F700008D08D4FB84205D08C4FB84202D08C4F2C
:104F8000B84206D14FF6DF77394046F01007394373
:104F900005E04FF65F77394044F01007394302834C
:104FA0000184F0BD028B4FF6F3731A400283028B2B
:104FB0000A4302837047F0B50C46154600220021D3
:104FC000068C4FF6FE773E400684028B018C4FF62E
:104FD0000C7632407E1C06EA03162E433243704E96
:104FE000B0420ED06F4EB0420BD0B0F1804F08D01F
:104FF0006D4EB04205D06D4EB04202D06C4EB04204
:1050000006D14FF6FD76314044F00106314305E00C
:105010004FF6F576314044F00106314302830184B6
:10502000F0BD70B505460C465D4885420ED05D4822
:1050300085420BD0B5F1804F08D05B48854205D042
:105040005A48854202D05A48854200D100E000BF4C
:10505000208850B92389A28861882846FFF7ABFFD2
:10506000E1882846FFF79EFF25E0208804280AD122
:105070002389A28861882846FFF753FFE1882846E4
:10508000FFF742FF17E0208808280AD12389A28869
:1050900061882846FFF7FBFEE1882846FFF7EEFE11
:1050A00009E02389A28861882846FFF7A6FEE188E7
:1050B0002846FFF795FE70BD2DE9F04105460C46E8
:1050C00000260127608808B9022600E00026A08893
:1050D000012801D1022700E001272088A0B92389F7
:1050E000A28861882846FFF766FFE1882846FFF717
:1050F00059FF23893A4631462846FFF712FFE188D7
:105100002846FFF701FF13E02389A288618828461B
:10511000FFF707FFE1882846FFF7F6FE23893A46A6
:1051200031462846FFF747FFE1882846FFF73AFF58
:10513000BDE8F0810A884B881A438B881A43CB88D4
:105140001A430B891A434B891A438B891A43A0F8D7
:10515000442070474FF6FF71818000210180C1809B
:105160004180017270470021018041808180C180AF
:10517000018141818181C18170470021018041808D
:10518000012181800021C1800181704700210180BF
:1051900041808180C180018141818181704700000F
:1051A000002C014000340140000400400008004091
:1051B000000C004021B1028842F00102028004E0AC
:1051C00002884FF6FE731A400280704731B1B0F882
:1051D000442042F40042A0F8442005E0B0F8442006
:1051E000C2F30E02A0F8442070471AB183890B4322
:1051F000838102E083898B4383817047818270477A
:1052000041EA0203A0F8483070471AB183890B4382
:10521000838102E083898B438381704701894FF644
:10522000F8721140018170470A46002101894FF64A
:105230008F73194011430181704730B504460D4604
:1052400029462046FFF7F0FF208940F00700208123
:1052500030BD2DE9F04104460D4616461F46602D2F
:1052600006D13B46012231462046FFF75AFE05E0B3
:105270003B46012231462046FFF79DFE2946204647
:10528000FFF7D2FF208940F007002081BDE8F081C0
:1052900030B50C4600210189C9B24FF6FF7505EA09
:1052A0000325154325432943018130BD2DE9F041F4
:1052B00005460E4617469846002443463A46314670
:1052C0002846FFF7E5FF2C894FF6F870044044F0BC
:1052D00007044FF68F70044044F070042C81BDE841
:1052E000F081F0B504460D4616461F463B46324651
:1052F00029462046FFF7CCFF208940F480402081DA
:10530000F0BD0185828270470A46002101884FF670
:105310008F731940114301807047F0B50C46154654
:105320001E460021002200230189028B038C4FF6C8
:10533000F877394021434FF6FC473A4040F20117D5
:105340003A434FF6DD773B404FF6FF7707EA061703
:105350002F433B43018102830384F0BD0A460021B1
:10536000018B4FF68F7319401143018370470A4632
:105370000021018B48F6FF7319404FF6FF7303EAD3
:1053800002231943018370470A460021818B4FF69F
:105390008F7319401143818370470A460021818B26
:1053A00048F6FF7319404FF6FF7303EA02231943CF
:1053B0008183704721B1028842F08002028004E0BC
:1053C00002884FF67F731A400280704721B18288AD
:1053D00042F00402828004E082884FF6FB731A4098
:1053E0008280704721B1828842F00802828004E006
:1053F00082884FF6F7731A408280704721B1828805
:1054000042F00102828004E082884FF6FE731A4067
:10541000828070470A460021018B4FF6F7731940CE
:105420001143018370470A460021018B4FF2FF733D
:1054300019404FF6FF7303EA0223194301837047B3
:105440000A460021818B4FF6F7731940114381837F
:1054500070470A460021818B4FF2FF7319404FF6C7
:10546000FF7303EA02231943818370470A46002130
:10547000018B4FF6FB7319401143018370470A46B5
:105480000021018B4FF6FF3319404FF6FF7303EAFB
:1054900002231943018370470A460021818B4FF68E
:1054A000FB7319401143818370470A460021818BA9
:1054B0004FF6FF3319404FF6FF7303EA02231943F7
:1054C000818370470A460021018B4FF67F73194094
:1054D0001143018370470A460021018BC1F30E017D
:1054E0004FF6FF7303EA02231943018370470A460C
:1054F0000021818B4FF67F731940114381837047E0
:105500000A460021818BC1F30E014FF6FF7303EAB7
:1055100002231943818370470A460021018C4FF60C
:10552000FD7319401143018470470A460021018C24
:105530004FF6F77319401143018470470A46002162
:10554000018C4FF6DF7319404FF6FF7303EA021325
:105550001943018470470A460021018C4FF67F737E
:1055600019404FF6FF7303EA021319430184704791
:105570000A460021018C4FF6FF5319404FF6FF7386
:1055800003EA02231943018470470A460021018C73
:105590004FF2FF7319404FF6FF7303EA02231943DA
:1055A000018470470A460021018C4DF6FF731940B3
:1055B0004FF6FF7303EA023319430184704730B595
:1055C000002301248C40A3B2048C9C430484048CEB
:1055D00002FA01F5ADB22C43048430BD30B500238E
:1055E00004248C40A3B2048C9C430484048C02FAEF
:1055F00001F5ADB22C43048430BD70B503460020E4
:1056000000241846183001258D40ACB21D8CA543EE
:105610001D8409B1082909D100EB6100056825F056
:10562000700505600568154305600EE00D1FC5F3A4
:105630004E052844056825F4E045056005684FF6E9
:10564000FF7606EA02263543056070BD21B1028867
:1056500042F00202028004E002884FF6FD731A4015
:105660000280704721B1028842F00402028004E007
:1056700002884FF6FB731A400280704721B182887E
:1056800042F08002828004E082884FF67F731A40E5
:105690008280704702884FF6F7731A4002800288B2
:1056A0000A430280704782884FF68F731A408280C7
:1056B00082880A438280704702894FF6F8731A4045
:1056C000028102890A430281704702894FF67F7383
:1056D0001A40028102890A4302817047818470471F
:1056E0008185704781867047018770478187704741
:1056F000A0F84010704702884FF6FF431A4002801E
:1057000002880A43028070470146888E704701462E
:10571000088F70470146888F70470146B1F84000F6
:1057200070470146888C70470146088D70470246D5
:105730000020138A0B400BB1012000E000207047CD
:10574000CA430282704730B502460020002300247D
:10575000158A05EA0103958905EA010413B10CB124
:10576000012000E0002030BDCA43028270470000E3
:1057700010B50446FB48844209D101218803FFF794
:105780009FF800214FF48040FFF79AF832E0F64886
:10579000844209D101214804FFF79FF800214FF40A
:1057A0000030FFF79AF825E0F048844209D1012142
:1057B0008804FFF792F800214FF48020FFF78DF85E
:1057C00018E0EB48844209D10121C804FFF785F8AD
:1057D00000214FF40020FFF780F80BE0E5488442F9
:1057E00008D101210805FFF778F800214FF4801057
:1057F000FFF773F810BD2DE9F04786B005460E4659
:105800000024A24600BFA1460027B08900B100BF16
:105810002F462C8A4CF6FF700440F08804432C82FB
:10582000AC894EF6F3100440B08831890843718981
:1058300008430443AC81AC8A4FF6FF400440B08972
:105840000443AC8201A8FEF7B4FFC648874202D1E8
:10585000DDF810A001E0DDF80CA0A88900F40040FC
:1058600040B10AEBCA0000EB0A1031684900B0FBF6
:10587000F1F807E00AEBCA0000EB0A103168890072
:10588000B0FBF1F86420B8FBF0F0040120096421BA
:1058900001FB1089A88900F4004040B1322000EBE0
:1058A000C900B0FBF1F000F00700044308E032202B
:1058B00000EB09106421B0FBF1F000F00F0004438D
:1058C0002C8106B0BDE8F0874FF41651016000212D
:1058D0008180C18001810C2141810021818170473B
:1058E00010B502460020108A4FF2FF0318400B88C3
:1058F0004C8823438C882343CC882343184310824D
:1059000010BD0021018041808180C180704721B19C
:10591000828942F40052828104E082894DF6FF734D
:105920001A4082817047F0B5034600240026002506
:10593000002040F66A17B94200D100BF1846C1F3F3
:10594000421401F01F06012707FA06F5012C01D1C8
:105950000C3004E0022C01D1103000E014301AB1F8
:1059600007682F43076002E00768AF430760F0BD98
:105970001AB1838A0B43838202E0838A8B4383823A
:105980007047028A4FF6F0731A400282028A0A4375
:105990000282704782894FF2FF731A4082818289A6
:1059A0000A438281704721B1828942F002028281DA
:1059B00004E082894FF6FD731A4082817047028AA3
:1059C0004FF6DF731A400282028A0A43028270474E
:1059D00021B1028A42F48042028204E0028A4BF63C
:1059E000FF731A4002827047C1F308028280704739
:1059F00001468888C0F308007047818941F00101A1
:105A000081817047028BD2B20283028B42EA01226B
:105A100002837047028B02F47F420283028B0A43A7
:105A20000283704721B1828A42F02002828204E020
:105A3000828A4FF6DF731A408282704721B1828AD0
:105A400042F01002828204E0828A4FF6EF731A401D
:105A50008282704721B1828A42F00802828204E089
:105A6000828A4FF6F7731A408282704721B1828989
:105A700042F40042828103E08289C2F30E028281F5
:105A8000704721B1828A42F40062828204E0828AF5
:105A90004FF2FF731A4082827047828A4FF6FB737F
:105AA0001A408282828A0A438282704721B1828AA6
:105AB00042F00202828204E0828A4FF6FD731A40AD
:105AC0008282704702460020B1F5007F00D100BFFE
:105AD00013880B400BB1012000E00020704701F457
